:0300000002014DAD
:0C014D00787FE4F6D8FD7581560201763B
:1001130075B101E4F5B2F5C9F5CA90FE1374FEF0AA
:0601230090FE1504F0221D
:0901640012011312013E0200FB1E
:0801760012016412002680FB57
:0B015900EF1FAC0670011E4C70F62278
:10000300E4FEEF30E704D2B28002C2B2C2CCEF25E5
:08001300E0FFD2CC0EBE08EAAA
:01001B0022C2
:09016D00C2B1C2B3D2B3D2B12277
:05001C00C2B3D2B322C3
:05017E00C2CDD2CD222C
:0F013E00D2B1E4FFC2B3D2B30FBF2EF802017EDD
:1000260075520312016DE4F553E4F554E55460048A
:10003600740A800274092552F8E625E0F556E43381
:10004600F555E5564555600874082552F8E68001D1
:10005600E4FF12000312017E12001CAF56AE5512C9
:100066000159E4FF12000312017EC374FF9556FF87
:1000760074019555FE1201590554E554C394024086
:10008600AB74032552F5520553E553C394174099B3
:1000960012017EC3E49550FFE49400FE74FF2FFF27
:1000A600E43EFEEF7803C333CE33CED8F9FF020128
:0100B6002920
:10012900EF1FAA0670011E4A600A00007D091DED35
:0401390060EE80FAFA
:01013D00229F
:030023000200B721
:1000B700C0E0C0D075D000C000309831C298740835
:1000C7002551F8A69974082551F8E6B43115740737
:1000D7002551F8E6B4080C74062551F8E6B49803E0
:1000E7007551020551E551B44903755100D000D04F
:0400F700D0D0E03253
:1000FB00759850E4F589758BF7758DFFD28E758EDB
:08010B0040F551D2ACD2AF2245
:00000001FF
