BL51 BANKED LINKER/LOCATER V6.22                                                        07/02/2021  15:01:59  PAGE 1


BL51 BANKED LINKER/LOCATER V6.22, INVOKED BY:
D:\INSTALL\KEIL\C51\C51\BIN\BL51.EXE .\Objects\STARTUP.obj, .\Objects\DEVICE.obj, .\Objects\main.obj, .\Objects\hc595.ob
>> j, .\Objects\Delay.obj, .\Objects\UART.obj TO .\Objects\GAMEPAD PRINT (.\Listings\GAMEPAD.m51) RAMSIZE (256)


MEMORY MODEL: SMALL


INPUT MODULES INCLUDED:
  .\Objects\STARTUP.obj (?C_STARTUP)
  .\Objects\DEVICE.obj (DEVICE)
  .\Objects\main.obj (MAIN)
  .\Objects\hc595.obj (HC595)
  .\Objects\Delay.obj (DELAY)
  .\Objects\UART.obj (UART)


LINK MAP OF MODULE:  .\Objects\GAMEPAD (?C_STARTUP)


            TYPE    BASE      LENGTH    RELOCATION   SEGMENT NAME
            -----------------------------------------------------

            * * * * * * *   D A T A   M E M O R Y   * * * * * * *
            REG     0000H     0008H     ABSOLUTE     "REG BANK 0"
            DATA    0008H     004AH     UNIT         ?DT?UART
            DATA    0052H     0005H     UNIT         ?DT?HC595
            IDATA   0057H     0001H     UNIT         ?STACK

            * * * * * * *   C O D E   M E M O R Y   * * * * * * *
            CODE    0000H     0003H     ABSOLUTE     
            CODE    0003H     0019H     UNIT         ?PR?_WRITE_SEG?HC595
            CODE    001CH     0005H     UNIT         ?PR?COM_CROL?HC595
                    0021H     0002H                  *** GAP ***
            CODE    0023H     0003H     ABSOLUTE     
            CODE    0026H     0091H     UNIT         ?PR?WRITE_UI?HC595
            CODE    00B7H     0044H     UNIT         ?PR?UARTISR?UART
            CODE    00FBH     0018H     UNIT         ?PR?UART_INIT?UART
            CODE    0113H     0016H     UNIT         ?PR?IO_INIT?DEVICE
            CODE    0129H     0015H     UNIT         ?PR?_DELAYUS?DELAY
            CODE    013EH     000FH     UNIT         ?PR?HC595_INIT?HC595
            CODE    014DH     000CH     UNIT         ?C_C51STARTUP
            CODE    0159H     000BH     UNIT         ?PR?_DELAY?HC595
            CODE    0164H     0009H     UNIT         ?PR?DEVICE_INIT?DEVICE
            CODE    016DH     0009H     UNIT         ?PR?COM_START?HC595
            CODE    0176H     0008H     UNIT         ?PR?MAIN?MAIN
            CODE    017EH     0005H     UNIT         ?PR?HC595_TO_LED?HC595



OVERLAY MAP OF MODULE:   .\Objects\GAMEPAD (?C_STARTUP)


SEGMENT
  +--> CALLED SEGMENT
---------------------
?C_C51STARTUP
  +--> ?PR?MAIN?MAIN
BL51 BANKED LINKER/LOCATER V6.22                                                      07/02/2021  15:01:59  PAGE 2



?PR?MAIN?MAIN
  +--> ?PR?DEVICE_INIT?DEVICE
  +--> ?PR?WRITE_UI?HC595

?PR?DEVICE_INIT?DEVICE
  +--> ?PR?IO_INIT?DEVICE
  +--> ?PR?HC595_INIT?HC595
  +--> ?PR?UART_INIT?UART

?PR?HC595_INIT?HC595
  +--> ?PR?HC595_TO_LED?HC595

?PR?WRITE_UI?HC595
  +--> ?PR?COM_START?HC595
  +--> ?PR?_WRITE_SEG?HC595
  +--> ?PR?HC595_TO_LED?HC595
  +--> ?PR?COM_CROL?HC595
  +--> ?PR?_DELAY?HC595
  +--> ?PR?_DELAYUS?DELAY



SYMBOL TABLE OF MODULE:  .\Objects\GAMEPAD (?C_STARTUP)

  VALUE           TYPE          NAME
  ----------------------------------

  -------         MODULE        ?C_STARTUP
  C:014DH         SEGMENT       ?C_C51STARTUP
  I:0057H         SEGMENT       ?STACK
  C:0000H         PUBLIC        ?C_STARTUP
  D:00E0H         SYMBOL        ACC
  D:00F0H         SYMBOL        B
  D:0083H         SYMBOL        DPH
  D:0082H         SYMBOL        DPL
  N:0000H         SYMBOL        IBPSTACK
  N:0100H         SYMBOL        IBPSTACKTOP
  N:0080H         SYMBOL        IDATALEN
  C:0150H         SYMBOL        IDATALOOP
  N:0000H         SYMBOL        PBPSTACK
  N:0100H         SYMBOL        PBPSTACKTOP
  N:0000H         SYMBOL        PDATALEN
  N:0000H         SYMBOL        PDATASTART
  N:0000H         SYMBOL        PPAGE
  N:0000H         SYMBOL        PPAGEENABLE
  D:00A0H         SYMBOL        PPAGE_SFR
  D:0081H         SYMBOL        SP
  C:014DH         SYMBOL        STARTUP1
  N:0000H         SYMBOL        XBPSTACK
  N:0000H         SYMBOL        XBPSTACKTOP
  N:0000H         SYMBOL        XDATALEN
  N:0000H         SYMBOL        XDATASTART
  C:0000H         LINE#         126
  C:014DH         LINE#         133
  C:014FH         LINE#         134
  C:0150H         LINE#         135
BL51 BANKED LINKER/LOCATER V6.22                                                      07/02/2021  15:01:59  PAGE 3


  C:0151H         LINE#         136
  C:0153H         LINE#         185
  C:0156H         LINE#         196
  -------         ENDMOD        ?C_STARTUP

  -------         MODULE        DEVICE
  C:0000H         SYMBOL        _ICE_DUMMY_
  D:0080H         PUBLIC        P0
  D:00B2H         PUBLIC        P3M0
  D:0090H         PUBLIC        P1
  D:00B1H         PUBLIC        P3M1
  D:00A0H         PUBLIC        P2
  D:00CAH         PUBLIC        P5M0
  D:00B0H         PUBLIC        P3
  D:00C9H         PUBLIC        P5M1
  D:00C0H         PUBLIC        P4
  D:00C8H         PUBLIC        P5
  C:0164H         PUBLIC        device_init
  D:00A8H         PUBLIC        IE
  D:00B8H         PUBLIC        IP
  D:00D8H         PUBLIC        CCON
  D:0098H         PUBLIC        SCON
  D:0088H         PUBLIC        TCON
  C:0113H         PUBLIC        io_init
  D:00D0H         PUBLIC        PSW
  -------         PROC          IO_INIT
  C:0113H         LINE#         5
  C:0113H         LINE#         6
  C:0113H         LINE#         15
  C:0119H         LINE#         16
  C:011DH         LINE#         17
  C:0128H         LINE#         18
  -------         ENDPROC       IO_INIT
  -------         PROC          DEVICE_INIT
  C:0164H         LINE#         21
  C:0164H         LINE#         22
  C:0164H         LINE#         23
  C:0167H         LINE#         24
  C:016AH         LINE#         25
  -------         ENDPROC       DEVICE_INIT
  -------         ENDMOD        DEVICE

  -------         MODULE        MAIN
  C:0000H         SYMBOL        _ICE_DUMMY_
  D:0080H         PUBLIC        P0
  D:0090H         PUBLIC        P1
  D:00A0H         PUBLIC        P2
  D:00B0H         PUBLIC        P3
  D:00C0H         PUBLIC        P4
  D:00C8H         PUBLIC        P5
  D:00A8H         PUBLIC        IE
  D:00B8H         PUBLIC        IP
  D:00D8H         PUBLIC        CCON
  C:0176H         PUBLIC        main
  D:0098H         PUBLIC        SCON
  D:0088H         PUBLIC        TCON
  D:00D0H         PUBLIC        PSW
BL51 BANKED LINKER/LOCATER V6.22                                                      07/02/2021  15:01:59  PAGE 4


  -------         PROC          MAIN
  C:0176H         LINE#         4
  C:0176H         LINE#         5
  C:0176H         LINE#         7
  C:0179H         LINE#         10
  C:0179H         LINE#         11
  C:0179H         LINE#         12
  C:017CH         LINE#         13
  -------         ENDPROC       MAIN
  -------         ENDMOD        MAIN

  -------         MODULE        HC595
  C:0000H         SYMBOL        _ICE_DUMMY_
  D:0080H         PUBLIC        P0
  D:0090H         PUBLIC        P1
  D:00A0H         PUBLIC        P2
  D:00B0H         PUBLIC        P3
  D:00C0H         PUBLIC        P4
  D:00C8H         PUBLIC        P5
  C:013EH         PUBLIC        hc595_init
  D:00A8H         PUBLIC        IE
  C:0159H         PUBLIC        _delay
  D:00B8H         PUBLIC        IP
  D:00D8H         PUBLIC        CCON
  D:0098H         PUBLIC        SCON
  D:0088H         PUBLIC        TCON
  D:0052H         PUBLIC        cont
  B:00C8H.5       PUBLIC        rck
  C:017EH         PUBLIC        hc595_to_led
  C:0003H         PUBLIC        _write_seg
  C:016DH         PUBLIC        com_start
  C:001CH         PUBLIC        com_crol
  B:00B0H.1       PUBLIC        com_dat
  B:00B0H.2       PUBLIC        seg_dat
  B:00B0H.3       PUBLIC        com_clk
  B:00C8H.4       PUBLIC        seg_clk
  D:0053H         PUBLIC        i
  D:0054H         PUBLIC        j
  C:0026H         PUBLIC        write_ui
  D:0055H         PUBLIC        x
  D:00D0H         PUBLIC        PSW
  -------         PROC          _DELAY
  D:0006H         SYMBOL        x
  C:0159H         LINE#         6
  C:0159H         LINE#         7
  C:0159H         LINE#         8
  C:0163H         LINE#         9
  -------         ENDPROC       _DELAY
  -------         PROC          _WRITE_SEG
  D:0007H         SYMBOL        dat
  -------         DO            
  D:0006H         SYMBOL        i
  -------         ENDDO         
  C:0003H         LINE#         11
  C:0003H         LINE#         12
  C:0003H         LINE#         14
  C:0005H         LINE#         15
BL51 BANKED LINKER/LOCATER V6.22                                                      07/02/2021  15:01:59  PAGE 5


  C:0005H         LINE#         16
  C:0009H         LINE#         17
  C:000DH         LINE#         19
  C:000FH         LINE#         20
  C:0011H         LINE#         21
  C:0015H         LINE#         22
  C:0017H         LINE#         23
  C:001BH         LINE#         24
  -------         ENDPROC       _WRITE_SEG
  -------         PROC          COM_START
  C:016DH         LINE#         25
  C:016DH         LINE#         26
  C:016DH         LINE#         27
  C:016FH         LINE#         28
  C:0171H         LINE#         29
  C:0173H         LINE#         30
  C:0175H         LINE#         31
  -------         ENDPROC       COM_START
  -------         PROC          COM_CROL
  C:001CH         LINE#         32
  C:001CH         LINE#         33
  C:001CH         LINE#         34
  C:001EH         LINE#         35
  C:0020H         LINE#         36
  -------         ENDPROC       COM_CROL
  -------         PROC          HC595_TO_LED
  C:017EH         LINE#         38
  C:017EH         LINE#         39
  C:017EH         LINE#         40
  C:0180H         LINE#         41
  C:0182H         LINE#         42
  -------         ENDPROC       HC595_TO_LED
  -------         PROC          HC595_INIT
  -------         DO            
  D:0007H         SYMBOL        i
  -------         ENDDO         
  C:013EH         LINE#         45
  C:013EH         LINE#         46
  C:013EH         LINE#         48
  C:0140H         LINE#         49
  C:0142H         LINE#         50
  C:0142H         LINE#         51
  C:0144H         LINE#         52
  C:0146H         LINE#         53
  C:014AH         LINE#         54
  -------         ENDPROC       HC595_INIT
  -------         PROC          WRITE_UI
  -------         DO            
  D:0006H         SYMBOL        flg
  -------         ENDDO         
  C:0026H         LINE#         62
  C:0026H         LINE#         63
  C:0026H         LINE#         65
  C:0029H         LINE#         66
  C:002CH         LINE#         67
  C:002FH         LINE#         68
  C:002FH         LINE#         70
BL51 BANKED LINKER/LOCATER V6.22                                                      07/02/2021  15:01:59  PAGE 6


  C:0032H         LINE#         71
  C:0032H         LINE#         72
  C:0036H         LINE#         73
  C:0036H         LINE#         74
  C:0038H         LINE#         75
  C:003AH         LINE#         77
  C:003AH         LINE#         78
  C:0048H         LINE#         79
  C:0048H         LINE#         80
  C:004EH         LINE#         81
  C:0056H         LINE#         83
  C:005BH         LINE#         85
  C:005EH         LINE#         86
  C:0061H         LINE#         87
  C:0068H         LINE#         88
  C:006DH         LINE#         89
  C:0070H         LINE#         90
  C:007EH         LINE#         91
  C:0087H         LINE#         92
  C:008DH         LINE#         93
  C:0096H         LINE#         94
  C:0099H         LINE#         95
  C:00A2H         LINE#         96
  C:00A9H         LINE#         97
  C:00B4H         LINE#         98
  -------         ENDPROC       WRITE_UI
  -------         ENDMOD        HC595

  -------         MODULE        DELAY
  C:0000H         SYMBOL        _ICE_DUMMY_
  D:0080H         PUBLIC        P0
  D:0090H         PUBLIC        P1
  D:00A0H         PUBLIC        P2
  D:00B0H         PUBLIC        P3
  D:00C0H         PUBLIC        P4
  D:00C8H         PUBLIC        P5
  D:00A8H         PUBLIC        IE
  D:00B8H         PUBLIC        IP
  D:00D8H         PUBLIC        CCON
  D:0098H         PUBLIC        SCON
  D:0088H         PUBLIC        TCON
  D:00D0H         PUBLIC        PSW
  C:0129H         PUBLIC        _delayus
  -------         PROC          _DELAYUS
  D:0006H         SYMBOL        x
  -------         DO            
  D:0005H         SYMBOL        i
  -------         ENDDO         
  C:0129H         LINE#         18
  C:0129H         LINE#         19
  C:0129H         LINE#         21
  C:0133H         LINE#         22
  C:0133H         LINE#         23
  C:0134H         LINE#         24
  C:0135H         LINE#         25
  C:0137H         LINE#         26
  C:013DH         LINE#         28
BL51 BANKED LINKER/LOCATER V6.22                                                      07/02/2021  15:01:59  PAGE 7


  -------         ENDPROC       _DELAYUS
  -------         ENDMOD        DELAY

  -------         MODULE        UART
  C:0000H         SYMBOL        _ICE_DUMMY_
  D:0080H         PUBLIC        P0
  D:0090H         PUBLIC        P1
  D:00A0H         PUBLIC        P2
  D:00B0H         PUBLIC        P3
  D:00C0H         PUBLIC        P4
  D:00C8H         PUBLIC        P5
  B:00A8H.7       PUBLIC        EA
  D:00A8H         PUBLIC        IE
  B:00A8H.4       PUBLIC        ES
  D:00B8H         PUBLIC        IP
  B:0098H.0       PUBLIC        RI
  D:0008H         PUBLIC        uart_buffer
  D:00D8H         PUBLIC        CCON
  D:0099H         PUBLIC        SBUF
  D:0098H         PUBLIC        SCON
  D:0089H         PUBLIC        TMOD
  D:0088H         PUBLIC        TCON
  D:008EH         PUBLIC        AUXR
  D:008DH         PUBLIC        TH1
  C:00B7H         PUBLIC        UartIsr
  D:0051H         PUBLIC        wptr
  D:008BH         PUBLIC        TL1
  C:00FBH         PUBLIC        uart_init
  B:0088H.6       PUBLIC        TR1
  D:00D0H         PUBLIC        PSW
  -------         PROC          UARTISR
  C:00B7H         LINE#         13
  C:00C0H         LINE#         15
  C:00C3H         LINE#         16
  C:00C3H         LINE#         17
  C:00C5H         LINE#         18
  C:00CCH         LINE#         19
  C:00E7H         LINE#         20
  C:00E7H         LINE#         21
  C:00EAH         LINE#         22
  C:00EAH         LINE#         23
  C:00ECH         LINE#         24
  C:00F1H         LINE#         25
  C:00F4H         LINE#         26
  C:00F4H         LINE#         27
  -------         ENDPROC       UARTISR
  -------         PROC          UART_INIT
  C:00FBH         LINE#         29
  C:00FBH         LINE#         30
  C:00FBH         LINE#         31
  C:00FEH         LINE#         32
  C:0101H         LINE#         33
  C:0104H         LINE#         34
  C:0107H         LINE#         35
  C:0109H         LINE#         36
  C:010CH         LINE#         37
  C:010EH         LINE#         38
BL51 BANKED LINKER/LOCATER V6.22                                                      07/02/2021  15:01:59  PAGE 8


  C:0110H         LINE#         39
  C:0112H         LINE#         40
  -------         ENDPROC       UART_INIT
  -------         ENDMOD        UART

Program Size: data=88.0 xdata=0 code=385
LINK/LOCATE RUN COMPLETE.  0 WARNING(S),  0 ERROR(S)
