C51 COMPILER V9.56.0.0   I2C                                                               06/21/2021 13:17:39 PAGE 1   


C51 COMPILER V9.56.0.0, COMPILATION OF MODULE I2C
OBJECT MODULE PLACED IN .\Objects\I2C.obj
COMPILER INVOKED BY: D:\install\Keil\c51\C51\BIN\C51.EXE User\I2C.c OPTIMIZE(8,SPEED) BROWSE INCDIR(.\Headers) DEBUG OBJ
                    -ECTEXTEND PRINT(.\Listings\I2C.lst) TABS(2) OBJECT(.\Objects\I2C.obj)

line level    source

   1          //#include <all.H>
   2          
   3          //void iic_init()
   4          //{
   5          //  P_SW2|=0X80;
   6          //  I2CCFG=0XC9;
   7          //  I2CMSST=0X00;
   8          //}
   9          
  10          
  11          //void iic_wait()
  12          //{
  13          //  while(!(I2CMSST&0X40));
  14          //  I2CMSST&=~0X40;
  15          //}
  16          
  17          //void iic_start()
  18          //{
  19          //  I2CMSCR=0X01;
  20          //  iic_wait();
  21          //}
  22          
  23          //void recv_ack()
  24          //{
  25          //  I2CMSCR=0X03;
  26          //  iic_wait();
  27          //}
  28          
  29          //void iic_send_byte(u8 dat)
  30          //{
  31          //  I2CTXD=dat;
  32          //  I2CMSCR=0X02;
  33          //  iic_wait();
  34          //  recv_ack();
  35          //}
  36          
  37          //u8 iic_recv_byte()
  38          //{
  39          //  I2CMSCR=0X04;
  40          //  iic_wait();
  41          //  return I2CRXD;
  42          //  
  43          //}
  44          //void send_ack()
  45          //{
  46          //  I2CMSST=0X01;
  47          //  I2CMSCR=0X05;
  48          //  iic_wait();
  49          //}
  50          //void iic_stop()
  51          //{
  52          //  I2CMSCR=0X06;
  53          //  iic_wait();
  54          //}
C51 COMPILER V9.56.0.0   I2C                                                               06/21/2021 13:17:39 PAGE 2   

  55          
  56          
  57          
  58          
  59          
  60          
  61          
  62          
  63          
  64          
  65          
  66          
  67          
  68          
  69          
  70          


MODULE INFORMATION:   STATIC OVERLAYABLE
   CODE SIZE        =   ----    ----
   CONSTANT SIZE    =   ----    ----
   XDATA SIZE       =   ----    ----
   PDATA SIZE       =   ----    ----
   DATA SIZE        =   ----    ----
   IDATA SIZE       =   ----    ----
   BIT SIZE         =   ----    ----
END OF MODULE INFORMATION.


C51 COMPILATION COMPLETE.  0 WARNING(S),  0 ERROR(S)
