C51 COMPILER V9.56.0.0   PWM                                                               06/21/2021 13:17:38 PAGE 1   


C51 COMPILER V9.56.0.0, COMPILATION OF MODULE PWM
OBJECT MODULE PLACED IN .\Objects\PWM.obj
COMPILER INVOKED BY: D:\install\Keil\c51\C51\BIN\C51.EXE User\PWM.c OPTIMIZE(8,SPEED) BROWSE INCDIR(.\Headers) DEBUG OBJ
                    -ECTEXTEND PRINT(.\Listings\PWM.lst) TABS(2) OBJECT(.\Objects\PWM.obj)

line level    source

   1          #include <all.H>
   2          
   3          
   4          
   5          //void set_vol(uu8 ch,float vol)// 2808 1V   28280 10V
   6          //{
   7          
   8          //  
   9          //  P_SW2=0X80;
  10          
  11          
  12          
  13          //    PWMA_CCR1=x;
  14          //    PWMA_CCER1|=0x01;//01 pwm1  10  pwm2
  15          //    PWMA_ENO|=0X01; //01 pwm1  04  pwm2
  16          //  
  17          
  18          //    PWMA_CCR2=x;
  19          //    PWMA_CCER1|=0x10;//01 pwm1  10  pwm2
  20          //    PWMA_ENO|=0X04; //01 pwm1  04  pwm2
  21          //  
  22          //  PWMA_BKR=0X80;//0x80 EN
  23          //  PWMA_CR1=1;//1 start
  24          //  P_SW2=0X00;
  25          
  26          //}
  27          
  28          //void set_pwm_num(uu8 ch,uu16 num)
  29          //{
  30          
  31          //  P_SW2=0X80;
  32          //  
  33          //  if(ch==1)
  34          //  {
  35          //    PWMA_CCR1=num;
  36          //    PWMA_CCER1|=0x01;//01 pwm1  10  pwm2
  37          //    PWMA_ENO|=0X01; //01 pwm1  04  pwm2
  38          //  }
  39          //  else if(ch==2)
  40          //  {
  41          //    PWMA_CCR2=num;
  42          //    PWMA_CCER1|=0x10;//01 pwm1  10  pwm2
  43          //    PWMA_ENO|=0X04; //01 pwm1  04  pwm2
  44          //  }
  45          //  PWMA_BKR=0X80;//0x80 EN
  46          //  PWMA_CR1=1;//1 start
  47          //  P_SW2=0X00;
  48          
  49          //}
  50          
  51          
  52          //void pwm_init()
  53          //{
  54          //  P_SW2=0X80;
C51 COMPILER V9.56.0.0   PWM                                                               06/21/2021 13:17:38 PAGE 2   

  55          //  PWMA_PS|=0XA;
  56          //  PWMA_PSCR=0;//分频
  57          //  PWMA_CCER1=0; //清零
  58          //  PWMA_CCMR1=0X60;// 使能
  59          //  PWMA_CCMR2=0X60;//  使能
  60          //  PWMA_ARR=32767;//周期
  61          //  P_SW2=0X00;
  62          //  set_vol(1,0);
  63          //  set_vol(2,0);
  64          //}
  65          
  66          
  67          
  68          
  69          
  70          
  71          
  72          
  73          
  74          
  75          
  76          
  77          
  78          
  79          
  80          
  81          
  82          
  83          
  84          


MODULE INFORMATION:   STATIC OVERLAYABLE
   CODE SIZE        =   ----    ----
   CONSTANT SIZE    =   ----    ----
   XDATA SIZE       =   ----    ----
   PDATA SIZE       =   ----    ----
   DATA SIZE        =   ----    ----
   IDATA SIZE       =   ----    ----
   BIT SIZE         =   ----    ----
END OF MODULE INFORMATION.


C51 COMPILATION COMPLETE.  0 WARNING(S),  0 ERROR(S)
