C51 COMPILER V9.56.0.0   SPI                                                               06/21/2021 13:17:39 PAGE 1   


C51 COMPILER V9.56.0.0, COMPILATION OF MODULE SPI
OBJECT MODULE PLACED IN .\Objects\SPI.obj
COMPILER INVOKED BY: D:\install\Keil\c51\C51\BIN\C51.EXE User\SPI.c OPTIMIZE(8,SPEED) BROWSE INCDIR(.\Headers) DEBUG OBJ
                    -ECTEXTEND PRINT(.\Listings\SPI.lst) TABS(2) OBJECT(.\Objects\SPI.obj)

line level    source

   1          #include <all.H>
   2          
   3          
   4          void spi_init()
   5          {
   6   1        P_SW1=0X04;
   7   1        SPCTL=0Xdc;
   8   1        SPSTAT=0Xc0;
   9   1      
  10   1      }
  11          
  12          
  13          void spi_write(u8 dat,u8 mode)
  14          {
  15   1        oled_dc=mode;
  16   1        SPDAT=dat;
  17   1        while(!(SPSTAT&0X80));
  18   1        SPSTAT=0Xc0;
  19   1        oled_dc=1;
  20   1      }
  21          
  22          
  23          
  24          
  25          
  26          
  27          
  28          
  29          
  30          
  31          
  32          
  33          
  34          
  35          
  36          
  37          
  38          
  39          
  40          
  41          
  42          
  43          
  44          
  45          
  46          
  47          


MODULE INFORMATION:   STATIC OVERLAYABLE
   CODE SIZE        =     28    ----
   CONSTANT SIZE    =   ----    ----
   XDATA SIZE       =   ----    ----
   PDATA SIZE       =   ----    ----
C51 COMPILER V9.56.0.0   SPI                                                               06/21/2021 13:17:39 PAGE 2   

   DATA SIZE        =   ----    ----
   IDATA SIZE       =   ----    ----
   BIT SIZE         =   ----    ----
END OF MODULE INFORMATION.


C51 COMPILATION COMPLETE.  0 WARNING(S),  0 ERROR(S)
